:0E00000018C0FECFFDCFFCCFFBCFFACFF9CF5B
:10000E00F8CFF7CFF6CFF5CF3CC0F3CFF2CFF1CF8D
:10001E00F0CFEFCFEECFEDCF0000000004000400D4
:10002E0026000000F894EE27ECBBE5BFF8E1A8959A
:10003E00A4B7A77FA4BFF1BDE1BD8DE0A2E0ED9313
:10004E008A95E9F780E8A0E6ED938A95E9F7EAE26A
:10005E00F0E085919591009761F0A591B59105908D
:10006E001590BF01F00105900D920197E1F7FB018C
:10007E00F0CFE0E0EAB9EBB9ECB9EFEDEDBFC0E8D7
:10008E0014C024B035B01895AA93E881E068E7B99A
:10009E008BE18A95F1F7E5B7E77EE862E5BF8895D3
:1000AE00EF7DE5BFF10121960895E0E8E8BDE0E0BF
:1000BE00E8BDEBBBEEEFEABBE8E1E8BBE0E1E7BB96
:1000CE00E0E0E5BBE3BFE4BBE2BFE3BBE2BBE9BDFF
:1000DE00E0BFEFBDE7BDE6BDE0B974D0EEBD72D0B6
:1000EE00EDBD70D0ECBD6ED0EBBD6CD0EABDE0E0E6
:1000FE00E4BDE5BFEBBFE9BFEDB9E0E8E8B9E0E08C
:10010E00E9B9E2B9E1B9E2B9E0E8E7B9EFE8E6B991
:10011E001F981C9A789459D0DE98C49AB39939C016
:10012E00E2E0F3E058D010F459D0DD9AE2E0F3E0CB
:10013E005AD020F4EEEEF2E04ED008F002C04ED0CF
:10014E00DD98EEEEF2E04FD020F4EAEDF2E043D08F
:10015E0008F002C043D0DD98ECEBF2E044D020F47E
:10016E00EAE8F2E038D008F002C038D0DD98EAE8CC
:10017E00F2E039D020F4E6E2F2E02DD008F002C031
:10018E002DD0DD98A8EEB3E031D0F30131963F01CA
:10019E00C5CF1BD0E3E0F0E06E167F0668F0042CAE
:1001AE00052831F4E1E0F0E02F01DE9AC49804C096
:1001BE0044245524DE98C49A66247724A0E064DF94
:1001CE00ADCFFFCFE0E0E5BD0895D998DA98DB9882
:1001DE00DC98DD980895E215F3050895D99ADA9A18
:1001EE00DB9ADC9A08952E163F060895109639F084
:1001FE0080ED97E00197F1F7A8951197C9F708954B
:00000001FF
