:0200000012C02C
:10000200FECFFDCFFCCFFBCFFACFF9CFF8CFF7CFA2
:10001200F6CFF5CF24C0F3CFF2CFF1CFF0CFEFCFB1
:10002200EECFEDCFF894EE27ECBBE5BFF8E1A89553
:10003200A4B7A77FA4BFF1BDE1BD8DE0A2E0ED931F
:100042008A95E9F780E8A0E6ED938A95E9F7E0E082
:10005200EAB9EBB9ECB9EFEDEDBFC0E813C044B0BB
:1000620055B01895AA93E881E7B98BE18A95F1F723
:10007200E5B7E77EE862E5BF8895EF7DE5BFF2016F
:1000820021960895E0E8E8BDE0E0E8BDEBBBE8E7D3
:10009200EABBE0E0E8BBE7BBE5BBE3BFE4BBE2BF32
:1000A200E3BBE2BBE9BDE0BFEFBDE7BDE6BDE0B942
:1000B2008AD0EEBD88D0EDBD86D0ECBD84D0EBBD3C
:1000C20082D0EABDE0E0E4BDE5BFEBBFE9BFEDB938
:1000D200E0E8E8B9E0E0E9B9E2B9E1B9E2B9E7B9E3
:1000E200ECE8E6B91F98E3B1E3B97894DE98DD98BD
:1000F200DC98DB98A0E0B6DF69D0E4EBF0E069D0F1
:1001020020F4E3E6F1E068D008F004C0E1E0F0E0BA
:100112001F015CD0E7E8F0E05CD020F4E8ECF0E00E
:100122005BD008F004C0E2E0F0E01F014FD0E4E64B
:10013200F0E04FD020F4E2E8F0E04ED008F004C046
:10014200E3E0F0E01F0142D0ECE3F0E042D020F423
:10015200EAE5F0E041D008F005C0E4E0F0E01F017C
:10016200A4E63DD0F101E130A0E0FA0711F4DE9AF5
:1001720026C0E230A0E0FA0731F4DE98DD9A31D0F1
:10018200A8EC2DD01EC0E330A0E0FA0749F4DE98B7
:10019200DD98DC9ADB9822243324A8EC20D011C00D
:1001A200E430A0E0FA0751F4DE98DD98DC98DB9A9F
:1001B20022243324A0E9B1E019D003C0DE98DD98EF
:1001C20010D098CFFFCFE0E0E5BD0895A2E3B0E004
:1001D2000DC0E415F50508954E165F060895B0E0CA
:1001E20005C0DC98DB98222433240895109639F058
:1001F20080ED97E00197F1F7A8951197C9F7089557
:00000001FF
